:020000040800F2
:100000000080012025050008750500087505000819
:10001000750500087505000875050008000000005A
:10002000000000000000000000000000750500084E
:10003000750500080000000075050008750500083A
:10004000000000007505000875050008750500082A
:100050007505000875050008750500087505000898
:100060007505000875050008750500087505000888
:100070007505000875050008750500087505000878
:1000800075050008750500087505000800000000EA
:1000900000000000000000000000000075050008DE
:1000A0007505000875050008750500087505000848
:1000B0007505000875050008750500087505000838
:1000C0007505000875050008750500087505000828
:1000D000750500087505000875050008000000009A
:1000E000750500087505000875050008000000008A
:1000F000000000000000000000000000750500087E
:100100000000000075050008750500087505000869
:1001100000000000000000000000000000000000DF
:1001200075050008750500087505000875050008C7
:10013000750500080000000000000000000000003D
:10014000000000000000000000000000750500082D
:100150007505000875050008750500087505000897
:10016000750500087505000800000000000000008B
:10017000000000000000000000000000000000007F
:10018000000000000000000000000000000000006F
:0401900075050008E9
:1001940010B5054C237833B9044B13B10448AFF3BD
:1001A40000800123237010BD000000200000000027
:1001B400C005000808B5034B1BB103490348AFF35E
:1001C400008008BD0000000004000020C0050008F5
:1001D40080B487B000AF7860396000237B6100236E
:1001E4003B610023FB6000237B6176E001227B6995
:1001F40002FA03F33B613B681B683A691340FB60F6
:10020400FA683B699A4265D17B681A687B695B002E
:10021400032101FA03F3DB431A407B681A607B680D
:100224001A683B681B7919467B695B0001FA03F382
:100234001A437B681A603B681B79012B03D03B6827
:100244001B79022B2ED17B689A687B695B000321A2
:1002540001FA03F3DB431A407B689A607B689A686F
:100264003B685B7919467B695B0001FA03F31A4327
:100274007B689A607B685A687B699BB21946012344
:100284008B40DB431A407B685A607B685B683A6842
:10029400927911467A6992B201FA02F292B21A4341
:1002A4007B685A607B68DA687B699BB25B000321D8
:1002B40001FA03F3DB431A407B68DA607B68DA688F
:1002C4003B68DB7919467B695B0001FA03F31A4347
:1002D4007B68DA607B6901337B617B690F2B85D98D
:1002E40000BF00BF1C37BD465DF8047B70470000AB
:1002F40080B483B000AF78600B46FB70FB78002BB2
:1003040006D00A4B1A6B09497B6813430B6306E05A
:10031400064B1A6B7B68DB43044913400B6300BF35
:100324000C37BD465DF8047B704700BF00380240BF
:1003340080B582B000AF01210420FFF7D9FF4FF44C
:1003440000733B6001233B7102237B710023BB716B
:100354000223FB713B4619460348FFF739FF00BFF0
:100364000837BD4680BD00BF0008024080B582B09A
:1003740000AF01210120FFF7BBFF01233B600123F4
:100384003B7102237B710023BB710223FB713B464B
:1003940019460348FFF71CFF00BF0837BD4680BD60
:1003A4000000024080B582B000AF01210220FFF7B7
:1003B4009FFF08233B6000233B7102237B710123D1
:1003C400FB713B4619460348FFF702FF00BF08379D
:1003D400BD4680BD0004024080B483B000AF7860A5
:1003E4000B46FB701346BB70BB78012B0DD17B68A9
:1003F4001B8B9BB21AB2FB78012101FA03F31BB2E7
:1004040013431BB29AB27B681A83BB78002B0DD1BD
:100414007B685B8B9BB21AB2FB78012101FA03F370
:100424001BB213431BB29AB27B685A8300BF0C37CA
:10043400BD465DF8047B704780B485B000AF78603A
:1004440039607B681A693B6822FA03F3FB60FB6836
:1004540003F00103FB60FB68DBB218461437BD46AA
:100464005DF8047B704780B483B000AF78600B46BE
:10047400FB701346BB70BB78012B0DD17B681B8BC3
:100484009BB21AB2FB78012101FA03F31BB21343A6
:100494001BB29AB27B681A83BB78002B0DD17B68A0
:1004A4005B8B9BB21AB2FB78012101FA03F31BB2F6
:1004B40013431BB29AB27B685A8300BF0C37BD4604
:1004C4005DF8047B7047000080B500AFFFF74EFF76
:1004D400FFF768FFFFF72CFF09E0012200210D4818
:1004E400FFF77AFF012209210B48FFF7BCFF032124
:1004F4000A48FFF7A1FF0346002BEED0002200219B
:100504000448FFF769FF002209210348FFF7ABFF06
:10051400EDE700BF00000240000802400004024072
:100524000D488546AFF300800C480D490D4A002361
:1005340002E0D458C4500433C4188C42F9D30A4A94
:100544000A4C002301E013600432A242FBD300F002
:1005540011F8FFF7B9FFFEE700800120000000203A
:1005640000000020E0050008000000201C0000201E
:10057400FEE7000070B50D4D0D4C641BA410002661
:10058400A64209D10B4D0C4C00F018F8641BA410C2
:100594000026A64205D170BD55F8043B98470136A4
:1005A400EEE755F8043B98470136F2E7D805000812
:1005B400D8050008D8050008DC050008F8B500BF18
:1005C400F8BC08BC9E467047F8B500BFF8BC08BC30
:0405D4009E46704788
:0405D800B90100085D
:0405DC00950100087D
:0400000508000525C5
:00000001FF
