:020000040800F2
:10000000008001205D020008AD020008AD0200087A
:10001000AD020008AD020008AD02000800000000BB
:10002000000000000000000000000000AD02000819
:10003000AD02000800000000AD020008C908000879
:1000400000000000AD020008AD020008AD0200088B
:10005000AD020008AD020008AD020008AD020008C4
:10006000AD020008AD020008AD020008AD020008B4
:10007000AD020008AD020008AD020008AD020008A4
:10008000AD020008AD020008AD020008000000004B
:10009000000000000000000000000000AD020008A9
:1000A000AD020008AD020008AD020008AD02000874
:1000B000AD020008AD020008AD020008AD02000864
:1000C000AD020008AD020008AD020008AD02000854
:1000D000AD020008AD020008AD02000800000000FB
:1000E000AD020008AD020008AD02000800000000EB
:1000F000000000000000000000000000AD02000849
:1001000000000000AD020008AD020008AD020008CA
:1001100000000000000000000000000000000000DF
:10012000AD020008AD020008AD020008AD020008F3
:10013000AD02000800000000000000000000000008
:10014000000000000000000000000000AD020008F8
:10015000AD020008AD020008AD020008AD020008C3
:10016000AD020008AD020008000000000000000021
:10017000000000000000000000000000000000007F
:10018000000000000000000000000000000000006F
:04019000AD020008B4
:1001940010B5054C237833B9044B13B10448AFF3BD
:1001A40000800123237010BD2800002000000000FF
:1001B400B431000808B5034B1BB103490348AFF33E
:1001C400008008BD000000002C000020B4310008AD
:1001D40080B582B002AF00F09FF800F0B5F9194B7A
:1001E400DBB21946184800F0E5FC174800F029FD79
:1001F4001649154801F03EFEFF230093FF23FF221A
:100204000021114801F015FF002300930023002270
:1002140001210D4801F00DFF0B4802F005F80C4BCD
:10022400009300230C221821074801F05FFD094BBD
:10023400009300231A221821034801F057FD00F00F
:1002440063FAFCE75C3B000844000020D03200085D
:10025400CC310008D83100080D48854600F026F856
:100264000C480D490D4A002302E0D458C45004330D
:10027400C4188C42F9D30A4A0A4C002301E01360E3
:100284000432A242FBD302F06FFFFFF7A1FFFEE7A7
:10029400008001200000002028000020C45A00082B
:1002A400280000209C120020FEE7000080B500AF6B
:1002B400164BD3F88830154A43F47003C2F88830DB
:1002C400134B1B68124A43F001031360104B0022C6
:1002D4009A600F4B1B680E4A23F0847323F4803317
:1002E40013600B4B0B4A5A60094B1B68084A23F4F2
:1002F40080231360064B0022DA6000F089F8034B78
:100304004FF000629A6000BF80BD00BF00ED00E0C6
:10031400003802401030002480B487B000AF0023BE
:100324003B6100237B610223FB600023BB6002234B
:100334007B60324B9B6803F00C033B613B69042BED
:1003440007D0082B09D0002B3DD12D4B2D4A1A6024
:100354003DE02B4B2C4A1A6039E0284B5B689B0D1F
:1003640003F00103BB60254B5B6803F03F037B6034
:10037400BB68002B0CD0244A7B68B2FBF3F31F4A02
:1003840052689209C2F3080202FB03F37B610BE09B
:100394001C4A7B68B2FBF3F3184A52689209C2F311
:1003A400080202FB03F37B61144B5B681B0C03F034
:1003B400030301335B00FB607A69FB68B2FBF3F370
:1003C4000F4A136003E00E4B0E4A1A6000BF0B4B3A
:1003D4009B681B0903F00F030C4AD35CDBB23B613F
:1003E400074B1A683B6922FA03F3054A136000BFFE
:1003F4001C37BD465DF8047B704700BF00380240DF
:10040400000000200024F40040787D010400002056
:1004140080B400AF224B1B6C214A43F08053136419
:10042400204B1B681F4A43F4404313601C4B1C4A77
:100434009B6893601A4B1A4A9B689360184B9B689D
:10044400174A43F480539360154B174A5A60144B70
:100454001B68134A43F08073136000BF104B1B6882
:1004640003F00073002BF9D0104B40F202621A60C3
:100474000B4B9B680A4A23F003039360084B9B6869
:10048400074A43F00203936000BF054B9B6803F0E7
:100494000C03082BF9D100BFBD465DF8047B7047FF
:1004A400003802400070004010540108003C024033
:1004B40080B483B000AF03463960FB7197F907300D
:1004C400002B0BDA3B68DAB20C49FB7903F00F031B
:1004D400043B1201D2B20B441A7609E03B68DAB24B
:1004E400074997F907301201D2B20B4483F800236D
:1004F40000BF0C37BD465DF8047B704700ED00E09B
:1005040000E100E080B582B000AF78607B68013B19
:10051400B3F1807F01D301230FE00A4A7B68013BDA
:1005240053600F214FF0FF30FFF7C2FF054B00224D
:100534009A60044B07221A60002318460837BD4608
:1005440080BD00BF10E000E080B584B000AF3B4642
:10055400184602F039F83B680A4AA2FB03239B09B8
:100564001846FFF7CFFF01214FF0FF30FFF7A0FF40
:100574004FF4C0720021044801F066FF00BF103739
:10058400BD4680BDD34D6210F800002090B587B001
:1005940000AFF860B9603B601346FB710023FB7544
:1005A4004CE0FA7D294913465B001344DB000B44FD
:1005B40010331B68002B3ED1FA7D244913465B009F
:1005C4001344DB000B44FA681A60FA7D1F49134692
:1005D4005B001344DB000B4410333A681A60FA7D65
:1005E4001A4913465B001344DB000B440C33FA79BD
:1005F4001A70FA7D154913465B001344DB000B4463
:100604001433BA6A1A60FC7D00F072F801460F4A8E
:1006140023465B002344DB00134404331960FA7D52
:100624000A4913465B001344DB000B440833BA68E1
:100634001A60FB7D06E0FB7D0133FB75FB7D0F2B10
:10064400AFD9FF2318461C37BD4690BDF8000020E3
:1006540080B483B000AF0346FB71FB790F2B0AD83B
:10066400FA79224913465B001344DB000B44103330
:100674001B68002B01D1002331E0FA791B49134692
:100684005B001344DB000B4400221A60FA7917491B
:1006940013465B001344DB000B44103300221A6042
:1006A400FA79124913465B001344DB000B440C3304
:1006B40000221A70FA790D4913465B001344DB00DB
:1006C4000B44083300221A60FA79084913465B0088
:1006D4001344DB000B44043300221A600123184640
:1006E4000C37BD465DF8047B704700BFF80000205E
:1006F40080B400AF034B1B681846BD465DF8047B0D
:10070400704700BF7802002080B584B000AF00239A
:10071400FB7368E0FA7B374913465B001344DB0044
:100724000B4410331B68002B5AD0FB7B184600F097
:1007340063F80346002B53D0FA7B2E4913465B0023
:100744001344DB000B4410331B68BB60FA7B29495C
:1007540013465B001344DB000B4414331B687B60BB
:10076400FA7B244913465B001344DB000B440C332F
:100774001B78DBB2FF2B20D0FA7B1E4913465B00AB
:100784001344DB000B440C331B78DBB2002B14D076
:10079400FA7B184913465B001344DB000B440C330B
:1007A4001B78DBB2013BD8B2124913465B001344F9
:1007B400DB000B440C3302461A70FA7B0D491346D6
:1007C4005B001344DB000B440C331B78DBB2002BBF
:1007D40003D1FB7B1846FFF73BFFBB68786898475B
:1007E400FB7B0133FB73FB7B0F2B93D900BF1037CB
:1007F400BD4680BDF800002080B584B000AF03463C
:10080400FB710023FB6072B6FFF772FFB860FB79DF
:100814000F2B0AD8FA792A4913465B001344DB00EC
:100824000B4410331B68002B02D162B6002342E054
:10083400FA79234913465B001344DB000B44043369
:100844001B68BA689A420CD3FA791D4913465B00B7
:100854001344DB000B4404331B68BA68D31AFB60EF
:100864000EE0FA79164913465B001344DB000B448F
:1008740004331A68BB68D31AFB60FB68DB43FB6074
:10088400FA790F4913465B001344DB000B44083329
:100894001B68FA689A4202D262B600230BE0FA7926
:1008A400074913465B001344DB000B440433BA6866
:1008B4001A6062B6012318461037BD4680BD00BFDA
:1008C400F800002080B400AF044B1B680133034AD6
:1008D400136000BFBD465DF8047B704778020020BA
:1008E40080B483B000AF786000BF0C37BD465DF8BC
:1008F400047B704780B582B000AF0121072001F06E
:100904000BFF01233B7103237B710023BB71002385
:10091400FB714FF468733B603B4619460A4801F08B
:10092400ACFD4FF488633B603B461946074801F031
:10093400A4FD80233B603B461946054801F09DFD1C
:1009440000BF0837BD4680BD0000024000040240DD
:100954000008024080B584B000AF78600B46FB709D
:100964000823FB7397F90330002B05DA0122802159
:10097400144801F010FE04E000228021114801F027
:100984000AFE0120FFF7ACFF012220210D4801F0EF
:1009940002FE0120FFF7A4FFFB7B013BFB73002257
:1009A4002021084801F0F7FD0120FFF799FFFB78AB
:1009B4005B00FB70FB7B002BD4D100BF1037BD461E
:1009C40080BD00BF0000024080B584B000AFF86075
:1009D4007B600B467B8113463B81B7F90A300A3BA7
:1009E4000B2B00F2DC8001A252F823F0210A00084C
:1009F400A30B0008730A00087D0A00088D0A00088A
:100A04009D0A0008AF0A0008CF0A0008F70A000888
:100A14002D0B00084B0B00089B0B0008FFF76AFF27
:100A240001228021604801F0B6FD012240215F4887
:100A340001F0B1FD012280215D4801F0ACFD0122ED
:100A44004FF40071584801F0A6FD002220215648B9
:100A540001F0A1FD01224FF48061544801F09BFD97
:100A640001224FF48071504801F095FD97E03B89D5
:100A74001846FFF735FF92E03B89DBB21A46802126
:100A84004B4801F088FD8AE03B89DBB21A464021DD
:100A9400464801F080FD82E03B89DBB21A464FF400
:100AA4000071414801F077FD79E03B89DBB21946DA
:100AB400F868FFF74FFF72E07B681B781946F86807
:100AC400FFF748FF3B89013B3B813B89002BF3D176
:100AD40065E07B681B781946F868FFF73BFF7B6885
:100AE40001331B781946F868FFF734FF3B89013B53
:100AF4003B813B89002BECD151E07B681B78194684
:100B0400F868FFF727FF7B6801331B781946F868FC
:100B1400FFF720FF7B6802331B781946F868FFF75C
:100B240019FF3B89013B3B813B89002BE5D136E032
:100B34007B685A1C7A601B781946F868FFF70AFF2D
:100B44003B89013B3B813B89002BF1D127E07B684A
:100B54001B78002B10D07B681B78012B06D1002258
:100B64004FF40071104801F016FD05E001224FF426
:100B740000710D4801F00FFD7B6801337B607B68D9
:100B84001B781946F868FFF7E5FE7B6801337B6044
:100B94003B89013B3B813B89002BD8D100BF01231A
:100BA40018461037BD4680BD0000024000040240D4
:100BB4000008024080B582B000AF78600B46FB703D
:100BC400074B084A0849786801F0A2F9FB781946EE
:100BD400786800F086FF00BF0837BD4680BD00BFBF
:100BE400CD090008251200084D13000880B584B013
:100BF40000AFF860084611461A4603467B810B464F
:100C04003B811346FB8014E0B7F90630B7F908209E
:100C1400B7F90A10F86801F0EDF9B7F918309BB28A
:100C2400013B9BB23B83B7F908309BB201339BB2C3
:100C34003B81B7F91830002BE6DC00BF1037BD4606
:100C440080BD80B584B002AF786000230093002398
:100C540000220021786801F0ECF9786800F03BFB91
:100C64007B68B3F902207B68B3F904300093134620
:100C7400002200217868FFF7B9FFFF230093FF23C8
:100C8400FF220021786801F0D4F900BF0837BD467F
:100C940080BD80B483B000AF7860084611461A4620
:100CA4000346FB700B46BB7013463B807B68FA78A7
:100CB4005A70BB789AB2FB789BB2D31A9BB21AB221
:100CC4007B689A803B88013B9BB21AB27B681A818D
:100CD4007B6801225A807B68B3F904301A467B682A
:100CE400B3F9083092FBF3F31AB27B68DA807B68BD
:100CF400B3F90430002B0CDA7B68B3F904309BB2EF
:100D04005B429BB21AB27B689A807B684FF6FF7293
:100D14005A807B68B3F904307A68B2F9082093FBEF
:100D2400F2F102FB01F29B1A1AB27B685A817B68CA
:100D3400B3F90830DA0F13445B101AB27B689A8156
:100D44007B68FA781A7000BF0C37BD465DF8047BE7
:100D5400704780B483B000AF78607B681A787B6892
:100D6400B3F90630DBB21344DAB27B681A707B68DD
:100D7400B3F90C309AB27B68B3F90A309BB21344CE
:100D84009BB21AB27B689A817B68B3F90C207B68AA
:100D9400B3F908309A4216DB7B681A787B68B3F99A
:100DA4000230DBB21344DAB27B681A707B68B3F9A1
:100DB4000C309AB27B68B3F908309BB2D31A9BB259
:100DC4001AB27B689A8100BF0C37BD465DF8047B7C
:100DD400704780B485B000AF78600B467B807B6839
:100DE400B3F90630DAB27B681A707B681A787B88AC
:100DF400DBB212FB03F3DAB27B681A707B68B3F9D7
:100E04000A309AB27B8812FB03F39AB27B68B3F977
:100E14000830D90F0B445B101BB29BB213449BB236
:100E2400FB817B68B3F90230002B0EDB7B681A78F8
:100E3400B7F90E307968B1F9081093FBF1F3DBB21E
:100E44001344DAB27B681A700DE07B681A78B7F93C
:100E54000E307968B1F9081093FBF1F3DBB2D31AC1
:100E6400DAB27B681A70B7F90E307A68B2F90820E2
:100E740093FBF2F102FB01F29B1A1AB27B689A818E
:100E84007B681A787B685B781344DAB27B681A70E3
:100E940000BF1437BD465DF8047B704780B584B04D
:100EA40000AFF8600B467A607B81B7F90A300C2BEF
:100EB4000AD0172B0FD1FB68DB68B7F90A107A68E0
:100EC400F8689847034607E0FB687A68703310684F
:100ED400516803C300BF012318461037BD4680BDC7
:100EE40080B485B000AFF8600B467A607B81012343
:100EF40018461437BD465DF8047B704790B585B03D
:100F040000AF7860786801F0C5FC0346002B53D02D
:100F14007B68B3F92E30012B08D0022B0BD0002BA9
:100F24001BD12849786801F0E3FF28E02649786856
:100F340001F0DEFF23E07B689B8CFB81FB89C3F11E
:100F44007F039BB21AB27B689A842049786801F0C7
:100F5400CFFF7B68FA899A8411E07B68DB8CFB8184
:100F6400FB89C3F17F039BB21AB27B68DA84184908
:100F7400786801F0BDFF7B68FA89DA8400BF7B687A
:100F840093F828303B727B6893F829307B727B6836
:100F940093F82A30BB727B68DC697B68B3F92C3028
:100FA4009AB207F1080313217868A04701217868F1
:100FB40001F0EAFE012300E0002318461437BD4681
:100FC40090BD00BF103200083032000854320008CF
:100FD4007832000890B587B000AF78600023FB75C5
:100FE4001AE07B6803F14601FA7D1346DB009B1A85
:100FF4005B00C818FB7D7A68134493F83A10FB7DB4
:101004007A68134493F83D207B68B3F92C30FFF7DA
:1010140040FEFB7D0133FB75FB7D022BE1D9786833
:1010240001F0B8FD0346002B71D07B68B3F92E3074
:10103400012B08D0022B0BD0002B1BD1364978682A
:1010440001F056FF28E03549786801F051FF23E0AC
:101054007B689B8C7B827B8AC3F17F039BB21AB231
:101064007B689A842E49786801F042FF7B687A8A0B
:101074009A8411E07B68DB8C7B827B8AC3F17F03DB
:101084009BB21AB27B68DA842649786801F030FF93
:101094007B687A8ADA8400BF0023BB822AE07B68FB
:1010A40093F846303B737B6893F854307B737B68CA
:1010B40093F86230BB737B68DC6907F10C0301228F
:1010C40013217868A0477B6846331846FFF741FE32
:1010D4007B6846330E331846FFF73BFE7B68463386
:1010E4001C331846FFF735FEB7F914309BB20133B1
:1010F4009BB2BB827B68B3F92C30B7F914209A42B7
:10110400CDDB0121786801F03FFE012300E00023DC
:1011140018461C37BD4690BD103200083032000816
:10112400543200087832000890B587B000AFF860F8
:101134000B467A607B81B7F90A300A3B0B2B5FD8E8
:1011440001A252F823F000BF7D1100089711000896
:10115400051200080512000805120008A311000872
:1011640005120008051200080512000805120008FF
:10117400B3110008FB110008FB6802221A84FB6803
:1011840001225A8442226421F86801F04CFD03468E
:101194003EE02149F86801F0ABFE012338E07B68AA
:1011A40080221A807B6880225A80012330E0F8680C
:1011B40001F056FB0346002B1BD01849F86801F0D8
:1011C40097FEFB6893F828303B75FB6893F8293049
:1011D4007B75FB6893F82A30BB75FB68DC6907F103
:1011E400140301221321F868A0470121F86801F0D3
:1011F400CBFD01230CE0F868FFF780FE012307E034
:10120400B7F90A307A681946F868FFF747FE0346CB
:1012140018461C37BD4690BD9C320008F0310008CA
:1012240080B584B000AFF8600B467A607B81B7F973
:101234000A30172B03D1F868FFF7CCFE00BF012357
:1012440018461037BD4680BD80B582B000AF7860C7
:101254007B681B7803F00103DBB2002B0AD07B68A8
:101264009B6800220B21786898477A6813786FF39B
:101274000003137000BF0837BD4680BD80B584B03D
:1012840000AF78607868FFF7DFFF7B689B68002217
:101294000A21786898470346FB81B7F90E30002B82
:1012A40004D07A68137843F001031370B7F90E3051
:1012B40018461037BD4680BD80B582B000AF786057
:1012C40039607B689B683A680C217868984700BF4E
:1012D4000837BD4680BD80B584B000AF78607A68B9
:1012E40007F10C0302321068186000233B810023CD
:1012F4007B8107F1080319467868FFF7DDFF00BF1B
:101304001037BD4680BD80B582B000AF78607B6881
:101314009B687A6802320F21786898477868FFF7EB
:10132400DAFF00BF0837BD4680BD80B582B000AF8C
:1013340078607B689B687A682432152178689847BE
:1013440000BF0837BD4680BD80B584B000AFF860EB
:101354000B467A607B81B7F90A300B2B15D00F2B23
:101364001CD00A2B22D1B7F90A307A681946F868DA
:10137400FFF7DAFE0346002B01D100231EE01149DA
:10138400F86801F0B5FD012318E0B7F90A307A686E
:101394001946F868FFF7C8FE03460FE07B68802211
:1013A4001A807B6880225A80012307E0B7F90A304B
:1013B4007A681946F868FFF7B7FE034618461037EF
:1013C400BD4680BDA432000880B483B000AF78600D
:1013D4000B46FB70FB787A6813447B607B681B7850
:1013E40018460C37BD465DF8047B704780B485B061
:1013F40000AF78600B46FB70FB787A6813447B601F
:101404007B681B78FB817B6801337B60FB891B0253
:10141400FB817B681B789AB2FB891344FB81FB89AF
:1014240018461437BD465DF8047B704780B582B01A
:1014340000AF7860396000213868FFF7C5FF0346C4
:101444001A467B681A7001213868FFF7BDFF03460E
:101454001A467B685A7002213868FFF7B5FF0346C5
:101464001A467B689A7003213868FFF7ADFF03467C
:101474001A467B68DA7004213868FFF7A5FF034633
:101484001A467B681A7105213868FFF79DFF0346E9
:101494001A467B685A7106213868FFF795FF0346A0
:1014A4001A467B689A7107213868FFF78DFF034657
:1014B4001A467B68DA7108213868FFF785FF03460E
:1014C4001A467B681A7209213868FFF77DFF0346C4
:1014D4005AB27B685A720A213868FFF775FF0346CF
:1014E4005AB27B689A720B213868FFF76DFF034686
:1014F4005AB27B68DA720C213868FFF765FF03463D
:101504005AB27B681A730D213868FFF75DFF0346F2
:101514005AB27B685A730E213868FFF755FF0346A9
:101524005AB27B689A730F213868FFF74DFF034660
:101534005AB27B68DA7310213868FFF745FF034617
:101544005AB27B681A7411213868FFF74FFF0346BB
:101554001A467B685A8213213868FFF747FF03460F
:101564001A467B689A8200BF0837BD4680BD80B4A6
:1015740085B000AF78600B46FB707B681B7B7B7388
:101584007B681B681B78FB73FA7B7B7B42FA03F353
:10159400FB737B7BBB73BA7BFB781344BB73BB7B52
:1015A400072B1AD908233B733A7B7B7BD31A3B73F3
:1015B4007B681B685A1C7B681A607B681B681B78F5
:1015C4001A463B7B02FA03F35AB297F90F301343DE
:1015D4005BB2FB73BB7B083BBB73FB784FF0FF3202
:1015E40002FA03F3DBB2DB43DAB2FB7B1340FB7397
:1015F4007B68BA7B1A73FB7B18461437BD465DF8CB
:10160400047B704780B584B000AF78600B46FB70F4
:10161400FB7819467868FFF7AAFF0346FB7301239A
:10162400BB73FB78013BFB7097F90E20FB7802FA41
:1016340003F3BB73FA7BBB7BD31ADBB2FB7397F95F
:101644000F3018461037BD4680BD90B482B000AF4D
:101654000446084611461A462346FB8003467B711E
:101664000B463B711346FB70FB78012B0BD0022B0E
:1016740011D0002B17D197F904309AB2FB88134488
:101684009BB2FB8017E097F905309AB2FB881344AC
:101694009BB2FB800FE0FA8897F904309BB2D31A0F
:1016A4009BB2FB8007E0FA8897F905309BB2D31A06
:1016B4009BB2FB8000BFB7F9063018460837BD4619
:1016C40090BC704790B482B000AF044608461146FF
:1016D4001A462346FB8003467B710B463B71134637
:1016E400FB70FB78012B0BD0022B11D0002B17D1F0
:1016F40097F905309AB2FB8813449BB2FB8017E03C
:10170400FA8897F904309BB2D31A9BB2FB800FE09E
:10171400FA8897F905309BB2D31A9BB2FB8007E095
:1017240097F904309AB2FB8813449BB2FB8000BF44
:10173400B7F9063018460837BD4690BC704790B5D7
:1017440089B002AF78600B46FB701346BB707B68B0
:1017540080333B61FB78FB753B6993F908307B75FB
:101764003B6993F909303B753B6993F90A30FB7384
:10177400FA7B7B7DD31AFB73FB7BBB75FA7DFB7B0A
:101784009A4201D2FB7DBB753B699B88BB813B6957
:10179400DB887B8197F9151097F914203B699B7BB3
:1017A400B7F90C00FFF78EFF0346BB8197F91510BC
:1017B40097F914203B699B7BB7F90A00FFF745FFB3
:1017C40003467B81BB78002B11D0BB7D1CB23B69E7
:1017D4009B7B1BB2B7F90A00B7F90C1000220192E7
:1017E400009323460246786800F0C0FB14E03B698E
:1017F4005B7B002B10D1BB7D1CB23B699B7B1BB276
:10180400B7F90A00B7F90C1001220192009323469C
:101814000246786800F0AAFBFA7DFB7B9A4209D362
:10182400FA7DFB7BD31AFB7500237B753B7D01336B
:101834003B7599E700BF7A7DFB7D13447B7597F96F
:1018440015203B691A7297F914203B695A7200BF3C
:101854001C37BD4690BD80B584B000AF7860396058
:101864007B688033FB60FB683A681A60FB6800227F
:101874001A73FB681B685A1CFB681A60FB681B68B8
:101884005A1CFB681A607B6893F894301946F86810
:10189400FFF76DFE03465AB2FB689A727B6893F8B1
:1018A40095301946F868FFF762FE03465AB2FB68A2
:1018B400DA7200BF1037BD4680BD80B584B000AF7A
:1018C4007860396039687868FFF7C5FF7B6893F8FA
:1018D4008B30FB737B6803F180027B6893F896304E
:1018E40019461046FFF78EFE0346BB737B6803F16F
:1018F40080027B6893F8973019461046FFF782FE02
:1019040003467B737B6803F180027B6893F898300D
:1019140019461046FFF776FE03463B737B6893F93E
:101924008A30002B69DD7B68B3F98400FA7B7B7B0A
:101934001344DBB25B42DBB25AB27B6893F88E305D
:1019440097F90E10FFF7BEFE03461A467B68A3F80C
:1019540084207B68B3F98600FA7B7B7B1344DBB27B
:101964005B42DBB25AB27B6893F88E3097F90E1063
:10197400FFF76BFE03461A467B68A3F886207B6854
:10198400002283F888207B68002283F889207B6802
:1019940003F180027B6893F8923019461046FFF7F2
:1019A400E6FD0346FB727B6803F180027B6893F8D3
:1019B400933019461046FFF7DAFD0346BB72FB7AF3
:1019C400002219467868FFF7BAFEBB7A012219464D
:1019D4007868FFF7B4FE7B68803301211846FFF76F
:1019E400C6FD0346002BEAD17B6893F9893097F949
:1019F4000F209A4200DDCAE700BF97F90C30184661
:101A04001037BD4680BD80B485B000AF78600B460A
:101A1400FB707B689B6FFB60FB681533FB60FB7896
:101A2400602B07D97B68B3F8A4301A46FB681344CB
:101A3400FB6009E0FB78402B06D97B68B3F8A23041
:101A44001A46FB681344FB60FB6801331B78002BC8
:101A54000ED0FB681B78FA789A4201D1FB6809E042
:101A6400FB6801331B781A46FB681344FB60EBE701
:101A740000BF002318461437BD465DF8047B704749
:101A840080B586B000AFF860084611461A46034692
:101A94007B810B463B811346FB710023FB82FB6871
:101AA4007A89A3F88420FB683A89A3F88620FB6826
:101AB400FA7983F88E2097F820301946F868FFF7F2
:101AC400A2FF38613B69002B05D03969F868FFF73C
:101AD400F4FE0346FB82B7F9163018461837BD46A4
:101AE40080BD80B483B000AF78600B46FB707B6828
:101AF400FA7883F88D2000BF0C37BD465DF8047B6F
:101B04007047000080B586B002AFF8600846114601
:101B14001A4603467B810B463B811346FB71FB79D6
:101B2400032B37D801A252F823F000BF411B000851
:101B3400571B00086D1B0008831B0008FB68DB6F44
:101B4400F868984703469AB23B8913449BB23B8199
:101B540020E0FB68DB6FF868984703467A899BB2FC
:101B6400D31A9BB27B8115E0FB68DB6FF86898475A
:101B740003463A899BB2D31A9BB23B810AE0FB68C5
:101B8400DB6FF868984703469AB27B8913449BB28B
:101B94007B8100BFF879B7F90820B7F90A103B7EBA
:101BA40000930346F868FFF76BFF034618461037A7
:101BB400BD4680BD80B586B002AF78600023FB814E
:101BC4007B68BB60454B1B78002B02D0012B1ED0D9
:101BD4007BE0434800F05DFB0346002B07D04149FE
:101BE4003F4800F0EFFB3D4B01221A7071E03E4B81
:101BF4001B78FF2B07D03C4B1B781846FEF728FDBB
:101C0400394BFF221A70354B00221A7061E0354BB4
:101C14009B681B78002B54D0324BB3F90010314B26
:101C2400B3F902202F4B18792E4B9B681B78009335
:101C34000346B868FFF766FF0346FB81294B1B790F
:101C4400032B37D801A252F823F000BF611C00080F
:101C5400771C00088D1C0008A31C0008214BB3F955
:101C640000309AB2FB8913449BB21AB21D4B1A80FE
:101C740021E01C4BB3F902309AB2FB8913449BB2A6
:101C84001AB2184B5A8016E0164BB3F900309AB2C8
:101C9400FB89D31A9BB21AB2124B1A800BE0114B78
:101CA400B3F902309AB2FB89D31A9BB21AB20D4B24
:101CB4005A8000E000BF0B4B9B680133094A9360D4
:101CC40007E0064B00221A7003E0044B00221A704E
:101CD40000BF00BF1037BD4680BD00BF8C1200207E
:101CE4007C020020901200201400002080B58AB0ED
:101CF40002AFF860084611461A4603467B810B463C
:101D04003B811346FB710023FB837B893B823B8928
:101D14007B82FB793B75BB6ABB6107F110031946F3
:101D24000C4800F001FB0C4B1B78FF2B0BD1FB681C
:101D340000930A4BFF221E210948FEF727FC0346A5
:101D44001A46054B1A70B7F91E3018462037BD469F
:101D540080BD00BF7C02002014000020B91B0008D5
:101D6400E031000880B483B000AF78607B689B6F7B
:101D7400002B5DD07B6893F99D207B6883F8AC20B1
:101D84007B6893F99E207B6883F8AD207B6893F889
:101D9400AB30002B4DD07B6893F8AB30012B1CD1BA
:101DA4007B6893F9AC207B6893F99F309A4205DAFB
:101DB4007B6893F99F207B6883F8AC207B6893F958
:101DC400AD207B6893F9A0309A4232DD7B6893F9A9
:101DD400A0207B6883F8AD202BE07B6893F9AC30BE
:101DE4001A467B6893F99A3019467B6893F99C30BC
:101DF4000B449A420DDA7B6893F99A30DAB27B6825
:101E040093F99C30DBB21344DBB25AB27B6883F89B
:101E1400AC207B6893F9AD207B6893F99C309A429F
:101E240007DD7B6893F99C207B6883F8AD2000E094
:101E340000BF0C37BD465DF8047B704780B483B0A7
:101E440000AF7860002318460C37BD465DF8047B6C
:101E54007047000080B483B000AF78607B68044AA8
:101E6400DA6700BF0C37BD465DF8047B704700BFDE
:101E7400411E000880B582B000AF786039607B688D
:101E84009B6F3A689A4212D07B683A689A677B687B
:101E9400903339681846FFF7C9FA7868FFF762FF8C
:101EA4004FF480530C220449044800F0D7F900BFD2
:101EB4000837BD4680BD00BF7C0200208C02002094
:101EC40080B483B000AF78607A6813786FF300034E
:101ED40013707B6800221A617B6801225A867B6832
:101EE40000229A677B68012283F88D207B68002298
:101EF40083F8AE207B68002283F8AF207B68002241
:101F040083F8B02000BF0C37BD465DF8047B7047F2
:101F140080B586B000AFF860B9607A603B60F8685D
:101F2400FFF7CEFF7B68002B03D1FB680E4ADA6013
:101F340002E0FB687A68DA60FB68BA689A60FB685A
:101F44003A68DA61F868FFF785FFF868FFF796F9F1
:101F54000346FB82F868FFF7D6F9B7F9163018463E
:101F64001837BD4680BD00BFE50E000880B584B0BB
:101F740000AFF860084611461A4603467B810B46BB
:101F84003B811346FB80B7F91C20F96813465B00BC
:101F940013440B443A331A78FB6883F82820B7F9C2
:101FA4001C20F96813465B0013440B443B331A7836
:101FB400FB6883F82920B7F91C20F96813465B00F5
:101FC40013440B443C331A78FB6883F82A20FB68DB
:101FD4007A899A84FB683A89DA84FB68FA889A8554
:101FE400FB683A8BDA85F868FFF79FF900BF103772
:101FF400BD4680BD80B586B002AFF8600846114684
:102004001A4603467B810B463B811346FB80B7F996
:102014000600B7F90820B7F90A100023019300233A
:1020240000930346F868FFF7A1FF00BF1037BD46D1
:1020340080BD80B483B000AF7860084611461A466C
:102044000346FB700B46BB7013467B70FA787968C5
:1020540013465B0013440B443A33BA781A70FA7887
:10206400796813465B0013440B443B337A781A7047
:10207400FA78796813465B0013440B443C333A7C8A
:102084001A7000BF0C37BD465DF8047B704780B5FD
:1020940082B000AF78607B681B69002B06D07B6838
:1020A4001A697B689A607B6800221A617868FFF776
:1020B4002AF97868FFF70FF900BF0837BD4680BDDD
:1020C40080B485B000AF786039607B68DB8AFB81BF
:1020D400FA893B68B3F902309BB2D31A9BB2FB81F5
:1020E400B7F90E309BB2013B9BB2FB813B68FA8986
:1020F4005A807B689B8ABB81BA893B68B3F90030FC
:102104009BB2D31A9BB2BB81B7F90C309BB2013B93
:102114009BB2BB813B68BA891A8000BF1437BD46A5
:102124005DF8047B7047000080B584B000AFF860B0
:102134000B467A607B81B7F90A300C3B0B2B66D8CF
:1021440001A252F823F000BF9B21000813220008CB
:10215400132200087D21000813220008132200081E
:102164001322000813220008E3210008E3210008D9
:1021740013220008E3210008FB681B69FA68143283
:10218400B7F90A10F86898477A68FB681433186836
:102194001060012343E07B68B3F902309AB27B6894
:1021A400B3F906309BB213449BB2013B9BB21AB203
:1021B4007B685A807B68B3F900309AB27B68B3F9C4
:1021C40004309BB213449BB2013B9BB21AB27B68AE
:1021D4001A807B681946F868FFF772FF17E0FB68FE
:1021E400B3F92E309BB202339BB21AB2FB68DA8584
:1021F400FB68B3F92E3003F003031AB2FB68DA85E7
:10220400FB6824331946F868FFF75AFF00BFFB68E0
:102214001B69B7F90A107A68F868984703461846A4
:102224001037BD4680BD00BF80B582B000AF786076
:102234007868FFF72CFF7B689A687B681A617B6873
:10224400054A9A607868FFF75EF87868FFF743F804
:1022540000BF0837BD4680BD2D21000880B584B07D
:1022640000AFF860B96011461A460B46FB7113467D
:10227400BB80BB68BA881A80BB68FA791A71BB68DC
:10228400FA68DA60B86800F036F800BF1037BD4667
:1022940080BD80B483B000AF78607B685B881846EB
:1022A4000C37BD465DF8047B704780B483B000AF43
:1022B40078607B685A887B681B889A422CBF01230C
:1022C4000023DBB218460C37BD465DF8047B70472B
:1022D40080B483B000AF78607B68DA887B681B8940
:1022E4009A420CBF01230023DBB218460C37BD46CB
:1022F4005DF8047B704780B582B000AF78607B687E
:102304000022DA807B6800221A817B6800225A80CE
:102314007B68D8687B681B881A46002100F094F813
:1023240000BF0837BD4680BD80B584B000AF78607B
:10233400396072B60023FB7321E0FB7B3A681A44D0
:102344007B68DB687968C9880B4412781A707B68EB
:10235400DB8801339BB21AB27B681B88013B9BB2BA
:102364001BB213401BB29AB27B68DA807B685B882D
:1023740001339AB27B685A80FB7B0133FB737B6821
:102384001B79FA7B9A42D8D37868FFF78EFF03460D
:10239400002B11D07B681A897B681B799BB213448C
:1023A4009BB21AB27B681B88013B9BB21BB21340E1
:1023B4001BB29AB27B681A8162B6002318461037A2
:1023C400BD4680BD80B584B000AF7860396072B618
:1023D4007868FFF77DFF0346002B05D07B68002259
:1023E4005A8062B602232BE00023FB7321E07B6852
:1023F400DB687A6812891A44FB7B39680B441278CB
:102404001A707B681B8901339BB21AB27B681B88E4
:10241400013B9BB21BB213401BB29AB27B681A8178
:102424007B685B88013B9AB27B685A80FB7B0133F3
:10243400FB737B681B79FA7B9A42D8D362B600237C
:1024440018461037BD4680BD80B483B000AF7860B5
:102454000B46FB7013463B8004E07B685A1C7A6091
:10246400FA781A703B885A1E3A80002BF5D100BFC7
:102474000C37BD465DF8047B704780B487B000AF6D
:102484007860396000237B6100233B610023FB609B
:1024940000237B6176E001227B6902FA03F33B614E
:1024A4003B681B683A691340FB60FA683B699A42CF
:1024B40065D17B681A687B695B00032101FA03F329
:1024C400DB431A407B681A607B681A683B681B7997
:1024D40019467B695B0001FA03F31A437B681A60AF
:1024E4003B681B79012B03D03B681B79022B2ED14F
:1024F4007B689A687B695B00032101FA03F3DB4381
:102504001A407B689A607B689A683B685B791946D5
:102514007B695B0001FA03F31A437B689A607B686A
:102524005A687B699BB2194601238B40DB431A40EE
:102534007B685A607B685B683A68927911467A696D
:1025440092B201FA02F292B21A437B685A607B6833
:10255400DA687B699BB25B00032101FA03F3DB4376
:102564001A407B68DA607B68DA683B68DB79194675
:102574007B695B0001FA03F31A437B68DA607B69C9
:1025840001337B617B690F2B85D900BF1C37BD46A6
:102594005DF8047B704780B483B000AF78600B466D
:1025A4007B8013467B707B78002B03D07B687A8812
:1025B4001A8302E07B687A885A8300BF0C37BD46D1
:1025C4005DF8047B7047000080B489B000AF786088
:1025D4000023BB6100237B610023FB6102233B6179
:1025E4000023FB600223BB60474B9B6803F00C0392
:1025F400BB61BB69042B07D0082B09D0002B3DD14C
:102604007B68424A1A603DE07B68414A1A6039E0BF
:102614003D4B5B689B0D03F00103FB603A4B5B6829
:1026240003F03F03BB60FB68002B0CD0384ABB6847
:10263400B2FBF3F3344A52689209C2F3080202FB74
:1026440003F3FB610BE0314ABB68B2FBF3F32E4AA0
:1026540052689209C2F3080202FB03F3FB612A4B9E
:102664005B681B0C03F0030301335B003B61FA69F5
:102674003B69B2FBF3F27B681A6003E07B68234A90
:102684001A6000BF204B9B6803F0F003BB61BB6979
:102694001B09BB611F4ABB6913441B78DBB27B6116
:1026A4007B681A687B69DA407B685A60164B9B68C2
:1026B40003F4E053BB61BB699B0ABB61154ABB6968
:1026C40013441B78DBB27B617B685A687B69DA4010
:1026D4007B689A600C4B9B6803F46043BB61BB69E5
:1026E4005B0BBB610B4ABB6913441B78DBB27B6198
:1026F4007B685A687B69DA407B68DA6000BF2437FC
:10270400BD465DF8047B7047003802400024F400A5
:1027140040787D011800002080B483B000AF786059
:102724000B46FB70FB78002B06D00A4B1A6B094949
:102734007B6813430B6306E0064B1A6B7B68DB4331
:10274400044913400B6300BF0C37BD465DF8047B9E
:10275400704700BF0038024080B485B000AF786095
:102764007B689B8CFB81FA897B68B3F970309BB2E0
:10277400D31A9BB2FB81B7F90E30002B01DA002388
:1027840009E07B68B3F97430B7F90E209A4201DB93
:10279400002300E0012318461437BD465DF8047B8E
:1027A400704780B485B000AF78607B68DB8CFB81B8
:1027B400FA897B68B3F972309BB2D31A9BB2FB815E
:1027C400B7F90E30002B01DA002309E07B68B3F976
:1027D4007630B7F90E209A4201DB002300E0012392
:1027E40018461437BD465DF8047B704780B487B043
:1027F40000AFF860B96011461A460B46FB801346D9
:10280400BB80FB681B88FB82BB681B88BB82B7F953
:102814001620B7F904309A4201DB00231AE0B7F915
:102824001420B7F906309A4201DC002312E0B7F90C
:102834001620B7F906309A4202DAFB68FA881A8041
:10284400B7F91420B7F904309A4202DDBB68BA889C
:102854001A80012318461C37BD465DF8047B704777
:1028640080B582B000AF78607868FFF775FF0346E3
:10287400002B01D1002308E07868FFF792FF03469C
:10288400002B01D1002300E0012318460837BD4680
:1028940080BD000090B585B000AF78607B680022F1
:1028A4001A867B68B3F92E30032B00F26D8101A2E6
:1028B40052F823F0C92800086F290008152A0008D7
:1028C400D12A00087868FFF76CFF0346002B01D17A
:1028D40000235AE17B68B3F92430FB81B7F90E3049
:1028E400BB817B68B3F92C309AB2B7F90C309BB238
:1028F40013449BB21BB2BB817B68B3F970407B6805
:10290400B3F970309AB27B68B3F974309BB2134454
:102914009BB21BB207F10C0107F10E002246FFF730
:1029240065FF0346002B01D100232EE1B7F90E30D9
:102934009AB27B68B3F924309BB2D31A9BB21AB211
:102944007B681A86B7F90E207B689A84B7F90C3035
:102954009AB2B7F90E309BB2D31A9BB21BB2BB81A9
:10296400B7F90C207B689A850EE17868FFF7F4FECE
:102974000346002B01D1002307E17B68B3F926301D
:10298400FB81B7F90E30BB817B68B3F92C309AB266
:10299400B7F90C309BB213449BB21BB2BB817B686A
:1029A400B3F972407B68B3F972309AB27B68B3F9B9
:1029B40076309BB213449BB21BB207F10C0107F1B2
:1029C4000E002246FFF712FF0346002B01D100231D
:1029D400DBE0B7F90E309AB27B68B3F926309BB2CC
:1029E400D31A9BB21AB27B681A86B7F90E207B6899
:1029F400DA84B7F90C309AB2B7F90E309BB2D31A15
:102A04009BB21BB2BB81B7F90C207B689A85BBE0F3
:102A14007868FFF7C6FE0346002B01D10023B4E01B
:102A24007B68B3F92430BB81B7F90C309BB2013316
:102A34009BB21BB2BB81B7F90C30FB81B7F90E30E6
:102A44009AB27B68B3F92C309BB2D31A9BB21BB2F7
:102A5400FB817B68B3F970407B68B3F970309AB23C
:102A64007B68B3F974309BB213449BB21BB207F179
:102A74000C0107F10E002246FFF7B8FE0346002BB7
:102A840001D1002381E0B7F90C309AB2B7F90E30C6
:102A94009BB2D31A9BB21AB27B689A85B7F90C30F1
:102AA4009BB2013B9BB21BB2BB817B68B3F9243060
:102AB4009AB2B7F90C309BB2D31A9BB21AB27B68A4
:102AC4001A86B7F90C207B689A845DE07868FFF772
:102AD40043FE0346002B01D1002356E07B68B3F983
:102AE4002630BB81B7F90C309BB201339BB21BB2C9
:102AF400BB81B7F90C30FB81B7F90E309AB27B6811
:102B0400B3F92C309BB2D31A9BB21BB2FB817B6806
:102B1400B3F972407B68B3F972309AB27B68B3F947
:102B240076309BB213449BB21BB207F10C0107F140
:102B34000E002246FFF75AFE0346002B01D1002364
:102B440023E0B7F90C309AB2B7F90E309BB2D31A1E
:102B54009BB21AB27B689A85B7F90C309BB2013BE1
:102B64009BB21BB2BB817B68B3F926309AB2B7F92A
:102B74000C309BB2D31A9BB21AB27B681A86B7F98F
:102B84000C207B68DA8400BF012318461437BD4645
:102B940090BD00BF80B584B000AF78607868FFF75F
:102BA40079FE0346002B01D1002319E00023FB73B7
:102BB40012E07B6803F14601FA7B1346DB009B1AA3
:102BC4005B00CA187B68B3F9303019461046FEF72B
:102BD40000F9FB7B0133FB73FB7B022BE9D9012357
:102BE40018461037BD4680BD90B583B000AF7860FD
:102BF4007B6893F8AF3003F00803002B06D07B68A2
:102C0400DC69002300220B217868A0477B6893F8D5
:102C1400AF3023F00803DAB27B6883F8AF2000BF3B
:102C24000C37BD4690BD90B585B000AF78600B46BB
:102C34007B8013463B807B883B813B887B81786823
:102C4400FFF7D2FF7B68002283F8AE207B68DC6943
:102C540007F1080300220A217868A0470346FB8194
:102C6400B7F90E30002B08D07B6893F8AF3043F0EF
:102C74000803DAB27B6883F8AF20B7F90E30184640
:102C84001437BD4690BD90B583B000AF7860084658
:102C940011461A460346FB700B46BB7013467B7005
:102CA400FB78002B31D17B6893F8AE20BB781340BE
:102CB400DBB2002B08D07B6893F8AF20BB781340BD
:102CC400DBB2BA789A424BD17B68DC697B7819B263
:102CD400FB789AB200237868A0477B6893F8AF30FA
:102CE4005AB297F90230DB435BB213405BB2DAB2FB
:102CF4007B6883F8AF207B6893F8AE20BB781343DE
:102D0400DAB27B6883F8AE202AE07B6893F8AE20C1
:102D1400BB781340DBB2002B07D07B6893F8AF205D
:102D2400BB781340DBB2002B1AD17B68DC697B785B
:102D340019B2FB789AB200237868A0477B6893F8AD
:102D4400AF20BB781343DAB27B6883F8AF207B688B
:102D540093F8AE20BB781343DAB27B6883F8AE20D5
:102D640000BF0C37BD4690BD80B582B000AF78601F
:102D74000B46FB70F9780D2304227868FFF783FF74
:102D840000BF0837BD4680BD80B582B000AF786013
:102D94000B46FB70F9780E2302227868FFF773FF65
:102DA40000BF0837BD4680BD80B582B000AF7860F3
:102DB4000B46FB70F9780F2301227868FFF763FF55
:102DC40000BF0837BD4680BD90B583B000AF7860C2
:102DD4000B467B807B68DC697A8800230C21786849
:102DE400A04700BF0C37BD4690BD80B582B000AF90
:102DF40078600B467B8007E04FF47A717868FFF7C0
:102E0400E3FF7B88013B7B807B88002BF4D100BFF0
:102E14000837BD4680BD90B583B000AF78600B46DF
:102E2400FB707B68DC69FB789AB200231021786818
:102E3400A04700BF0C37BD4690BD90B587B000AF2A
:102E4400F8600B467A607B8110E07B681B78FB7529
:102E5400FB68DC69FB7D9AB200231021F868A04767
:102E64007B6801337B607B89013B7B817B89002B01
:102E7400EBD100BF1C37BD4690BD80B584B000AF18
:102E8400F860B96011461A460B46FB711346BB71D4
:102E9400FB6893F8B0305B08DBB203F00103DBB2EC
:102EA4001946F868FFF780FFFB799BB2BA681946A8
:102EB400F868FFF7C2FFBB79002B14D0FB79BA681E
:102EC4001344BB60FB6893F8B03003F00103DBB23A
:102ED4001946F868FFF768FFBB799BB2BA681946D0
:102EE400F868FFF7AAFF00BF1037BD4680BD000099
:102EF40080B584B000AF786039603B681B78FB73A1
:102F0400FB7B1B09BB73FB7B03F00F037B73BB7B56
:102F14000F2B00F2248101A252F823F06331000840
:102F2400612F0008612F0008612F00086331000839
:102F340063310008812F0008B32F0008F72F000821
:102F4400233000084F300008AF3000086331000818
:102F540063310008633100080F3100083B68591CD5
:102F64007B7BBA7B7868FFF788FFBB7B5A1C7B7B33
:102F740013441A463B6813443B60EFE07B6893F8C4
:102F8400B03003F00103DBB219467868FFF70CFF99
:102F94007B7B99B23B6801331A467868FFF74DFF93
:102FA4007B7B01331A463B6813443B60D6E07B6865
:102FB40093F8B0305B08DBB203F00103002B0CBFC5
:102FC40001230023DBB219467868FFF7EDFE7B7B13
:102FD400002B07D07B7B99B23B6801331A46786893
:102FE400FFF72BFF7B7B01331A463B6813443B609E
:102FF400B4E03B6801333B603B681B78FB737B7B2D
:103004009BB21B029AB2FB7B9BB213449BB2194640
:103014007868FFF7EAFE3B6801333B609EE03B685B
:1030240001333B603B681B78FB737B7B9BB21B02C9
:103034009AB2FB7B9BB213449BB219467868FFF7A4
:10304400C3FE3B6801333B6088E03B6801333B606F
:103054003B681B78FB733B6801333B603B681B7820
:103064003B733B6801333B607B6893F8B03003F0FB
:103074000103DBB219467868FFF796FE7B68B3F963
:1030840024301A467B68B3F920301A447B7B42FA19
:1030940003F3DAB2FB7B1340DAB23B7B1343DBB2BC
:1030A40019467868FFF7B7FE58E03B6801333B6088
:1030B4003B681B78FB733B6801333B603B681B78C0
:1030C4003B733B6801333B607B6893F8B03003F09B
:1030D4000103DBB219467868FFF766FE7B68B3F933
:1030E40026301A467B68B3F922301A447B7B42FAB5
:1030F40003F3DAB2FB7B1340DAB23B7B1343DBB25C
:1031040019467868FFF787FE28E07B7B9B08BB7332
:103114007B7B03F003037B73BB7B012B0CD0032B62
:1031240013D0002B16D17B7B03F00103DBB21946CD
:103134007868FFF719FE0DE07B7B03F00103DBB237
:1031440019467868FFF720FE04E07B687A7B83F8F1
:10315400B02000BF3B6801333B6000BFCDE600BF39
:103164001037BD4680BD00BF70B50D4D0D4C641BBE
:10317400A4100026A64209D10B4D0C4C00F018F8FF
:10318400641BA4100026A64205D170BD55F8043B6B
:1031940098470136EEE755F8043B98470136F2E7C5
:1031A400BC5A0008BC5A0008BC5A0008C05A00089F
:1031B400F8B500BFF8BC08BC9E467047F8B500BF20
:0831C400F8BC08BC9E467047F0
:1031CC0049206C6F7665205054495400736F206D04
:1031DC00756368007563675F4472617753747269D5
:1031EC006E670000F4113600102AA00000A0FF004A
:1031FC0062007F102BB00000B0FF0062009F102C0B
:10320C0070000000F4113600102AA00000A0FF008E
:10321C00620081102BB00000B0FF006200A0102CE7
:10322C0070000000F4113600102AA00000A0FF006E
:10323C00A00000A0FF00102BB00000B0FF00620047
:10324C009F102C7000000000F41136401136401015
:10325C002AA00000A0FF0062007F102BB80100B074
:10326C00FF0062009F102C7000000000F4113680EB
:10327C00113680102AA00000A0FF00A00000A0FFC3
:10328C0000102BB00000B0FF0062009F102C7000EB
:10329C00F410101028F50000FDF1F58005F0800504
:1032AC00F18032F41011800A10131020113A06101C
:1032BC0029113600142A0000007F142B0000009FF7
:1032CC00102CF500BF00030204040204050B0DFFD3
:1032DC00FE08FE08FE015502BF200500E60421068B
:1032EC0081E3C4252207233B45A204231076A25573
:1032FC009225D12025C920255912012410A59E55AF
:10330C00B654946C4BA244A96C1100251188628EA2
:10331C00D492293910E740A225514901260D862364
:10332C008E16B56951A2259129270621BA84002849
:10333C000BA31A551225515B9405290CA31B45169A
:10334C0065514B9444002A07333645D2012B0A555C
:10335C00A655180D5218012C0732DA4CA2002D0676
:10336C00132EC5002E0611E344002F0A83E25425C8
:10337C006A892200300A85A2CD92F9962C00310779
:10338C0082A3CDD207320C85A2CD928525290B07BD
:10339C0001330C85A2CD9285911A6AC902340E852F
:1033AC00A25D262551524A062D4C00350C85A2CD26
:1033BC009084E11A6AC902360C85A2CD9289439297
:1033CC00D99205370B85A2C52066C52CAC01380CEB
:1033DC0085A2CD9269C992D99205390C85A2CD925C
:1033EC00D99221D492053A0661E344183B0982DA5A
:1033FC004C0E250A003C0753A755522B3D08346A46
:10340C00C5100E013E0853A7455629013F0C84A355
:10341C008D1265512D07220040169ADEDE20A65132
:10342C00A4245249C92225AA448A96638306410ED4
:10343C0087E25D9C2661929506255503420D85E336
:10344C00C59064DAA064B64101430C8623CE908407
:10345C006AC7644800440D8623C6106549E82D19D7
:10346C002200450A85E3C5311CC6E220460A85A325
:10347C00C5311C92B011470C8623CE90846A6D1412
:10348C009341480A862346681C06D131490681E3DC
:10349C00C4414A0984625D6F52A2004B0D85E3451D
:1034AC002625A5A9122599164C0884A345D6B72123
:1034BC004D10876346BA0DD952512A5224455201F8
:1034CC004E0F862386B6299112498994689B004F2A
:1034DC000B8623CE90843E264302500C85E3C59088
:1034EC0064DAA0848D005112971FCE108549988400
:1034FC00499844494D1A7420520C85E3C59064DAFE
:10350C00A0646E01530C85E3CD92A9ABA6250B00EC
:10351C0054098562C520857D02550A862346E8C775
:10352C00644800560F87E245AA2659944559254C04
:10353C00D20C5710896246966995A82F6DC52CCC74
:10354C002200580D85E345A625B54A94D4B40059FC
:10355C000E87E2459A645156099334AE015A0B8595
:10356C00E3C52066C5AC38085B08A2DBC4D22F02C9
:10357C005C0A83E24494456D51005D08A2DA84D262
:10358C002F035E0A55AE55982551520B5F06169ABD
:10359C00C501600622FE4414610C6562C51A2D51EA
:1035AC0012454A00620C85A245583169DAA42800FC
:1035BC00630A64628D1269A54401640A85A265C51B
:1035CC00B4991425650B64628D120D5B942800660A
:1035DC000A842295124D592700670C859A8D693300
:1035EC00294A982C00680A85A2455831696E0169F0
:1035FC000781A244320C6A09A2994C96F4A2006B82
:10360C000C846245565212292949016C0681A2C4C8
:10361C00416D0E6722C6A244911449911449056E5E
:10362C000965A24562D2DC026F0A65A2CD92B9256A
:10363C000B00700C859A4562D2B44951C210710AC4
:10364C00859A8D6933294A587209632245B2444DD3
:10365C0000730B64628D1225A2942800740A8322D5
:10366C004D942C5193007508646245E42919760C2D
:10367C0065A245A625A5240B2300770E67224614C8
:10368C004995A6A496844904780A65A24596D42A3D
:10369C00352D790E85594D94444929C9B430D20041
:1036AC007A0A6462C590456D43007B0AA3DA541212
:1036BC0055B2A82D7C07A1DBC443007D0BA3DA44D3
:1036CC0016D592A825027E0726EE8D6401A0050072
:1036DC00E604A10781DB44320CA20E859F5DB45435
:1036EC0094288992CA9401A30C85A29554C9B6B0AA
:1036FC00A42800A40C64664594289194285100A534
:10370C000D85A245664B2A83140D5204A608A1DB35
:10371C00C4100D01A70FA59ACD928D4B3444C9B896
:10372C00250B00A80613FE4412A90E7763D6568902
:10373C00142593945A3601AA08532EC5A46403ABDE
:10374C000A55A255D25B922501AC0735EBC5201664
:10375C00AD06132EC500AE0D7763D656491693D21F
:10376C002D9B00AF0613FEC400B00944328D1249E4
:10377C008902B10C75A255180D5298038300B2073B
:10378C0043F2CC5219B30843F2C4922D00B4062272
:10379C00FE8C02B50A845A45E469D83200B615A6E7
:1037AC009ACD3028C9922C9192255992255992255F
:1037BC000900B70612EE8400B80622DACC00B9066E
:1037CC0042F2CC52BA09532EC5900CD900BB0B5502
:1037DC00A245922559D21300BC1389624E96696199
:1037EC00944639908591160D519800BD1088624E03
:1037FC001669A5308A232D2965A501BE138962C6D9
:10380C000E6469944939128591980C519800BF0C3B
:10381C00849B550E64512D4A1400C010B7E2550E0E
:10382C00E470350993AC3428A91AC110B7E2659A33
:10383C00C3D5244CB2D2A0A46A00C211B7E25D9ADF
:10384C00E4689C2661929506255503C312B7E25D88
:10385C009225391AA7499864A54149D500C410A7E7
:10386C00E25592A3719A8449561A94540DC510B717
:10387C00E25D9AA471350993AC3428A91AC6128951
:10388C00A2DEB0C9499C0C4A940E6116668300C72F
:10389C000DA61BCE90846AC764084309C80DB5E316
:1038AC004D9A03C770188B8300C90CB5E35D1D38A6
:1038BC0086C3581C04CA0DB5E35596C4C3180E63D1
:1038CC007110CB0CA5E34D7918C3612C0E02CC09F9
:1038DC00B2E2449425FD00CD09B2E38C96F40B00C2
:1038EC00CE09B3E24C63D42F00CF09A3E2441246B5
:1038FC00FD02D0118722CE9095C2414AC2244CB20F
:10390C00688800D112B62356122539A26D4AA444F8
:10391C00522225DA26D20EB623569C434312FA982D
:10392C000C0900D30DB623661D1A92D0C76448004B
:10393C00D40EB6235698E4D090843E264302D50F7D
:10394C00B623561225393424A18FC99000D60EA661
:10395C00234E94234312FA980C0900D70A55A64516
:10396C0096D42AB500D812A61F6E3224D994488951
:10397C001229D1960C490AD90CB623569C23A11FA7
:10398C00932101DA0CB623661D09FD980C0900DBA6
:10399C000DB6235698E448E8C7644800DC0CA6230F
:1039AC004E9403A11F932101DD10B7E2659A636960
:1039BC00924559254CD2B806DE0D85E345180E49C3
:1039CC00A60D4A1802DF0B84628D12594A2E09008B
:1039DC00E00E95624D9A036BB44449142901E10E33
:1039EC0095625596236BB44449142901E20E9562F5
:1039FC005596C46BB44449142901E30D95624D7777
:103A0C00608D9628892225E40C85624D798D962847
:103A1C00892225E50F9562559664D11A2D511245D0
:103A2C004A00E60E6722C62246C930445954B100FA
:103A3C00E70C845A8D1269A5448B1400E80C94622F
:103A4C004D182BD1B0458902E90C9462551D50A23A
:103A5C00618B1205EA0D94624D94C44A346C51A2E8
:103A6C0000EB0C846245122BD1B0458902EC089214
:103A7C00A14494253DED0892A28C96F402EE099394
:103A8C00A14C63D40B00EF0983A1441246BD00F096
:103A9C000D95A24D3848D1A0B9250B00F10A9462BE
:103AAC004DA2A44BE429F20C95A24D9A234BE69619
:103ABC002C00F30B95A25D1D5932B76401F40D95E2
:103ACC00A25596E4C092B9250B00F50C95A255D2DF
:103ADC000E2C995BB200F60B85A24D1D5832B764C3
:103AEC0001F70A55A6550E0C3A1001F80D67A1D531
:103AFC0052929292544B9209F90A94624D98469EB6
:103B0C009201FA0A94625D94469E9201FB0A9462B9
:103B1C004D94A491A764FC0A84624592469E92013E
:103B2C00FD10B559659603511225A524D3C248033F
:103B3C00FE0DA59A45583169DAA4286108FF10A535
:103B4C00594D1D88922829259916461A0000000007
:103B5C00BF00040305060506072127FEF919F9190C
:103B6C00FC041C0A9F2006008861122112249BA0D1
:103B7C0032240E1E4C88E83F973888900022120998
:103B8C0091711366BC99880A890A890A898A00236B
:103B9C0039F092E0D48404850485E466E6840485D7
:103BAC000485840E0E220E0EA284E466E684E6845E
:103BBC00840E0E220E0EA2840485E466E666E6846C
:103BCC00048504850485A400243DEE939CD4A2D3E3
:103BDC009A1DCC8C84AC8999100AA1100AA1108A68
:103BEC0011118A9B89AB087C1077207817521643E9
:103BFC00211374126512551354142431134272405C
:103C0C00751A9D1D002550388BDFD62623CD06470F
:103C1C006608870E0487144E09094EC90852C90854
:103C2C008E89484EC9844E89880EC984CD8CC808AB
:103C3C00D91405CD88CA0C49CA1049CA4C09CA50B6
:103C4C0009CA8CC9094D090A4DC9490D09C68D0807
:103C5C000A56C6C30026433693E0F6CC29A88586BF
:103C6C00A766A766A766A784878649A629E601ECFE
:103C7C0021E8416C0E4426A86A66A886668A84A64A
:103C8C008884A64AA4C62AA4C8ACEAC8EC88246CCA
:103C9C000E680E468EAE6800270B0391F1110E2AAA
:103CAC0042B2002816A893DCF2A2A674A64A4CAB2A
:103CBC003DD39D985C9C666302291AA893DC12C4C0
:103CCC00C6E4D4C589C9896936B52B31ADC4A4A65F
:103CDC007426062A1BCC916BB44455C98898884C21
:103CEC001C0C99551D888C88D4884C89AA022B10E1
:103CFC0030921FF5C4F5DDC10774E2FA1D002C0FDC
:103D0C0045915A32260E266894281909022D086806
:103D1C0088E7123E182E0B84906032240E22240069
:103D2C002F182A7B6012B5135427A84E509DA03A29
:103D3C00417582EA04D5090230341093A0D4480F9F
:103D4C00E286C6548DCD90910C4E101E041E041E9E
:103D5C00041E041E041E041E041E041E04520C8E9B
:103D6C0090D18C4D89890DCD1D84920131100D9B04
:103D7C00A0D444A70E42F7FFBF2C3A3032270F8B4A
:103D8C00A0B4EC0E86C64604290627E826E826E8E9
:103D9C0046E46887676769F72C682E664E6450E2C4
:103DAC00E00F0433270F8BA0B4EC0E86A666E64614
:103DBC00C846C866E4866797121EC416130F53488C
:103DCC001EBE3B1C21AA3998B3023429108BA05477
:103DDC00C5A587699B4A4C8A4C8A0CCACC09CD096B
:103DEC008D494D894D890DC90D1D7C4039BD71E53D
:103DFC0081040035290E93A054E6620E680E860EDF
:103E0C00A4848583D550491CC4D4908C8DC8D16EA4
:103E1C002178F7EC6E648AE480CA0A00362F0F8B87
:103E2C00A0D4EC0E86864AC648C648044586D7D22E
:103E3C0010511C84DC50584D941D043E9C189C1849
:103E4C009C9823199B99223A10AC02371C0D9BA00D
:103E5C0014FEC032425022322450243056A9AC52A7
:103E6C0059A55BF2540C00382F0F8BA0B4EC0E86C6
:103E7C0088968DCC8D0C8A0C8A9009110D598C1D4D
:103E8C00441E1E444DDC0C95CC51CC5DBA9C981B49
:103E9C00A1A239203B02392F0F8BA094EC0E86D8AF
:103EAC008C8D90510C4E0C4E0C3E883B08AB20B2C6
:103EBC0020323988A031A1A51D1E911B211BA19A6E
:103ECC0061752067073A10049A6032240E22E411BF
:103EDC00491C4448003B14A58A5B52442848E451D1
:103EEC008B5090CCC8C488A8013C1250921FF5018D
:103EFC00A2672BFB9498BA5FCF03043D0D1091245D
:103F0C00157E408FA3830F083E1250921F15E201BD
:103F1C00A6FB35316965DF4EC7033F1D2C8BA053C3
:103F2C008E462AC426C4CE9C0DB2235CA9343654CA
:103F3C003D169284946200404A368B6016AF0F286F
:103F4C008BEA28C76687C467E40144A42A46148D0B
:103F5C00D4D4CCD430A2A1991A22A11A2221228A1B
:103F6C001099A29110991A921019A251225322243D
:103F7C0032612126524222333D343B564678507DE5
:103F8C0007413D3783E075E3C1E6A1E681E881EAAC
:103F9C0061EA4124E64124E80144E80164E6016455
:103FAC00A8A5A6A588A568E5660F4C0F2C25272586
:103FBC000925E964C964A9666B2A2FEE0E04423CFC
:103FCC00348BE0151EC41D1CC48D950D8E0D520D29
:103FDC00520D520D520D8E0D8ECDCD1D141E8C4ECC
:103FEC00D5CD910D524D124D124D124D124D120D4B
:103FFC0052CDD51C1C881C1C08014339348BA0F5F0
:10400C006EC40E28A4E68A266948676647884588E8
:10401C0025C823C823E821E821E821E821E821E884
:10402C0021C825A825A8258865688546C5C8060F1A
:10403C0068CF00443C368B60161E441E1C08CED53F
:10404C004D928D8E8D528D52CD12CD12CD12CD1230
:10405C00CD12CD12CD12CD12CD12CD12CD12CD4E20
:10406C008D528D8E4DCECD551D1C081D1CC4014589
:10407C003E348B20161E981C1C100D168D0E8D0EAA
:10408C00CD0A8D05098D45058D45054D89CE901EB2
:10409C008C1E8CCE904E894E898E45058D45050D16
:1040AC0007CD0ACD0A8D0E0D961CFC6000463B34E4
:1040BC008BA0151E981C1C100D168D0ECD0ACD0A4A
:1040CC000D078D45058D45054D894E89CE901E8C6D
:1040DC001E8C0E8D4E898E858E858E85CE83CC83DF
:1040EC00CC83CC03DC1E50024741388B20F60E6289
:1040FC00240F2A04C9EC28C968C786A7A8A5C6A599
:10410C00E60182E80182E8A1E8A1E8A1E8A1280F74
:10411C000E826BA8A7A6A7A6A788C766E94609E9D9
:10412C0024240F48640F828200483E398BE0160E1F
:10413C00680E48EECE66076707670767076707676D
:10414C00076707670767070F0E060F0E06670767F7
:10415C0007670767076707670767076707670767E3
:10416C00C7EE4E0E680E0849102B8B60130E48CE0E
:10417C0006F7FF7F7672404A1F3183A0D40E28AB1E
:10418C00C7F7FF6A6CA86AA86AA86A886C488E6828
:10419C006CEC80F00E004B3E398B60160E680E6690
:1041AC00CEEE2629970ECE0E0ACF498F894F8D0F52
:1041BC00CD03CCCC438CD4034C9C5B90D750531187
:1041CC008FD5CED10E920E564E528E128E56999689
:1041DC001C8C1D084C3B348BA0150E68EF01E6417E
:1041EC00E641E641E641E641E641E641E641E6418B
:1041FC00E641E641E641E641E641868386838683D5
:10420C00668566854687064B0E0E260E0E2A004DD9
:10421C005F3D83A0370E620F646CED6A0B4D0B256E
:10422C00262506252625062508430645E64406458B
:10423C00E6440645C8620665A6640665A66406657E
:10424C00886406856684068566840685488406A58A
:10425C0046A206A526A406A5AC06A5CA06C5C80690
:10426C00C5C806C5E6C6ACA44E0E66640E084E491B
:10427C003A8B20170E020F664ACD6A054D054D0587
:10428C00252805250A95D409CAD009CA94090A55C6
:10429C00094A51094A15098AD508CAD108CA95088C
:1042AC000A92084A52088A4E088A1ACA160A130A2F
:1042BC0093D90E1D8C0A014F38368B20F60E820FC7
:1042CC002AC9E846A7488986678849C627C80FC205
:1042DC00EF21EC21EC21EC21EC21CE0FC247C6479B
:1042EC008869868748A946E7C8280F8A0FE20050DC
:1042FC0039348BA0151EC41D1CC48D950D524D1246
:10430C004D128D0E8D0E4D124D120D528D951DD8D8
:10431C001D50CE83CC83CC83CC83CC83CC83CC83F9
:10432C00CC83CC03DC1E50025152F78B1A16CF0FE4
:10433C0048E95852D1124DCF5093CC034CD0031CAA
:10434C00C403DC83D883D883D883DC031CC4035018
:10435C004C558D904CD09090088D0C5184498C4DBF
:10436C0084498C35ACA23D203F9807A291079891C7
:10437C0007208987B807A9079A01523F358BE015AA
:10438C001E041E1C048ED50DCE0D924D8E4D8E0D21
:10439C00920D920DCECDD14D511ECC1E904E518E04
:1043AC004D8E11CE0DCE0DCECD04CDCD04CDCD0484
:1043BC00CD51889C551C1091005331319320950E92
:1043CC0062620E2844E64A442746276625862368FF
:1043DC0023C86D0F260F080F66AF8DAB8B1B9B1E72
:1043EC00444ED48D481CD0045D015435338B60157C
:1043FC00FED1CC41D454D918D9BA39B939B9B9C0CC
:10440C007988798879887988798879887988798898
:10441C0079887988798879887988F1D3032200554D
:10442C003B3A83A0160EA80E462ECDA605A705A7CF
:10443C0005A705A705A705A705A705A705A705A710
:10444C0005A705A705A705A705A705A7056945673E
:10445C00452985ABA80FE8414E01563E3783E01540
:10446C000E860E442AAB48C748E746052905294362
:10447C000745E944E982C784A984A9C287C469C4F1
:10448C0069E22146E42128E42128E261EA61EA811B
:10449C00E6A1E6A1E6C16201575B3F83E0170E621D
:1044AC000E640E22CCEA6A0827A70627C5E808C5C1
:1044BC00E8E804E7E804E7CA04C9CA24A724A64428
:1044CC00A724A64489428844696486646764668428
:1044DC006764488449A246A427A446C2ADCCCDEA61
:1044EC0001E8EA01E8E821E8E82126E74124E56152
:1044FC00242501583E3783A0150E660E64ECCA0ABB
:10450C0007E926CB64A98689A44BE40128E621ECB3
:10451C0041EA81E881EA61EA41EE0126CA65A88791
:10452C0088A568E528E70A25E946A92A4B0E840EDA
:10453C0006593C3783E0150EA40E242C8B4AC74831
:10454C000509070945C964AB8489A46BC449E421F6
:10455C0028E421EC61EA61E8A1E6A1E6A1E6A1E686
:10456C00A1E6A1E6A1E6A1E661CE0FC8005A323160
:10457C008BE0340E0E240E0E24E84806490469E440
:10458C006AE488E28AE288A989898B59D30511C625
:10459C0014C6108A148A504A504E101EFC60005BE0
:1045AC000DA79BDC120EA4F4FFFF5F1D5C1E2F9366
:1045BC002015A687A787A787A787A787A787570F41
:1045CC004F0F4F0F4F0F4F0F4F0F5D0DA78BDC127F
:1045DC00AEF4FFFF5F1D085E1CB0912CD588694DB1
:1045EC002D470647E686C686A6C686C666064706D5
:1045FC002746075F0850801C147E406009C788F16D
:10460C0012A436536124108A60940C0FA68888C6B5
:10461C0086E4A647ED0EA48896CDCCCDCCCD8CD11E
:10462C00D05C441C84B49A00622B2F836074448B3E
:10463C00F72764134745335433642373237323736D
:10464C002373237323732364235433453312074199
:10465C00414400631C0C8AA0B3C80E6286268628CF
:10466C0086CE2426773A17312632247310560364EB
:10467C002A308BA09465ABF73B92A98BA1A19A3100
:10468C009A3192C191C191C191C191C191C1113223
:10469C009A311AA2AA8B399202651D0E8A20B4EAAD
:1046AC000E848648C646041D1E1CD8AEA58C1894D4
:1046BC00A09A3918330266192E83E0F2CC6686165E
:1046CC0049CD8C05CD6E783037BBFF87074300672B
:1046DC0034F08A59B4486A0E2644864624C686C6E7
:1046EC0086C686C686C6A686E60EE22408C5C50F13
:1046FC00C60EAA0E8AC44A242726272627AA680E85
:10470C00EACC00683833832095A4ED21E621E6211C
:10471C00E621E621E621E621E6216646270E6BE836
:10472C00A8E696CD8DCD8DCD8DCD8DCD8DCD8DCD70
:10473C008DCD8DCD8DCDCD1C841C086912098BA01F
:10474C0072C4A8C8E451CF98EDFFCD81006A19E975
:10475C007399D2C4A8C8E451CF98EDFF2F826C2472
:10476C00662446646A006B3A33832095A4ED21E6F7
:10477C0021E621E621E621E621E621E621660EA2CC
:10478C00A6E8A62487446764478427860F622948D5
:10479C0067288708A706C7E6C6C8E6480E620E0259
:1047AC006C0F298BE092C466CCF6FFFFE640006DDF
:1047BC001F1B82E07646A8C82C4EEE6A2664E6A83B
:1047CC00A8C6A8A8C6F6FFFFFFCD41C883006E2877
:1047DC001382E07466C82C0EE26CE6C8C6C8D68D8F
:1047EC00CD8DCD8DCD8DCD8DCD8DCD8DCD8DCD8DED
:1047FC00CDCD1CC41C046F1D0E8A20B4080FA286DC
:10480C0066C646C62606FD70626C646C6668EA2055
:10481C00900A00702EF08AD974448A2A0E828A6813
:10482C00C866E84606470647064706470647064752
:10483C00C866C8668A561C048D944DEFB8F42010D7
:10484C0000712DF08A59B46AA20E2284A668C6683B
:10485C00E646064706470647064706470647C86822
:10486C00C688868A0E22C64AA6F7B8F220007214B1
:10487C000E82E07366282C6E4A6838129ADD3F3C33
:10488C00900273200B92E07328440E248626C424D5
:10489C00C424A822AE0E820EC2EEEAE8AA0E2C4266
:1048AC006A00741CEC8260B36243552E243B209A40
:1048BC00DC5FC54CC50CC90CC990489D950075288A
:1048CC0012822075E6468CACE6A6E6A6E6A6E6A61F
:1048DC00E6A6E6A6E6A6E6A6E6A6C6A8C6A868CC00
:1048EC000E22AA6A46007623118260140E622CEA0C
:1048FC0066E8A4C8A4A8E4A6E4882267246724294F
:10490C00642764AB99CB03C8017735188220164E07
:10491C004E2CA8C866C6C684A8B622129B22929BAF
:10492C0091100A9C091911A41019919C1099109DB1
:10493C00089290252226221E9B1613179303782388
:10494C00108AE0140E224EA8A688E4660449242797
:10495C006489A9694B450665C886A6A668C8284E11
:10496C000E7930F28A19150E624EE886E8C4E6C458
:10497C00A804A70489426744674429842784CBD9B7
:10498C0003C843C803C84388CA8892888EC85A8F04
:10499C00037A210D8AE0330E2A8828A448A466A243
:1049AC0068822827092927A942C842C624A88E0E46
:1049BC000E087B14C69BDC9264466684F46F4666D4
:1049CC008686F41F2D127C0922CB2015FE83007DD8
:1049DC0014C693DC128416E93F5A333223A47F3376
:1049EC003223047E1090902675E8240E828C0E22C1
:1049FC00E46800A00600886112A112249B9932245D
:104A0C000E22C445F45F1C3C989000A22E0D939C82
:104A1C0074D5C68A591DC80C8D4C8D0C514C8D4CBF
:104A2C00050D090D45CD48CD489104854CC8C8D01D
:104A3C00481D8415C6CA064702A328F08AE0F42A4A
:104A4C000FC4A6A6C486A688A688A65653AF3CB0AB
:104A5C00A3DE5A5CD48EA28AA66642E280668808DF
:104A6C0000A426308AE334828822260E22260E6E7B
:104A7C00886806470627467D3A31383238434473F6
:104A8C0070317110314606A52EF182E0140E624C85
:104A9C00C888E6A4C8C4C6E2880487226744476273
:104AAC002784C9670F040F64C7670F040F64C7D747
:104ABC001E441E0401A60B22CB20151E981E1C188A
:104ACC00A72ACC935B94C84686D4EC51D424674770
:104ADC00322452146276CE24A8446884CE28594ECF
:104AEC0005CDEC464868648C0800A80C6988F33244
:104AFC00642458C84800A94838836036ED010E88F4
:104B0C00C92847E7A4A7E40186A48E64A46686445A
:104B1C0084C4844482E682248404A368C669C6697A
:104B2C00C669C689C42582864584A6844484686681
:104B3C0084A4AC948BCD4ECED11ED0435802AA1C6B
:104B4C00CB81EB528C6466846464C66A48448644A8
:104B5C00A44466662AE8D11C4C00AB176B89A2B33F
:104B6C00828264F46664A391211929192919A9A0D8
:104B7C0000AC0A308923157E40AE1FAD086888E76B
:104B8C00123E18AE4D18836036ED010E4AE9EA86E6
:104B9C00A7C6A5440EC264A4648646A484A444C2D9
:104BAC0084A424C484C4C864E4C80CC94404C9449F
:104BBC00E6C864E424A464A644A484A444A484663F
:104BCC0066446A48A4C4C5662707670FEA012C012E
:104BDC00AF084A80F3121E18B01229916E536A2640
:104BEC0026A4A8E6A6A824D69400B112109220F50B
:104BFC00C4B53BF8804E5CF7981E7C40B217CA8156
:104C0C00E9526C4646844466446604E5E4C6368A3A
:104C1C00983A78B318C989E9526A94CC4808C949BA
:104C2C00CDD4CD89081511998C9800B40CC790F38C
:104C3C00B28466D6084901B531F18A1955E646AAFF
:104C4C008AE686E686E686E686E686E686E686E6F4
:104C5C0086E686C688C688688C0E2486226A4AE256
:104C6C0021E201C6B7070807B64CD1931B950E4C31
:104C7C000E0E22689410C98810C98810C98810C9F2
:104C8C008810C98810C98810C9C8D0A82991113AB0
:104C9C008811B311951195119511951195119511C7
:104CAC0095119511951195119511951195119511C8
:104CBC003C203B20B70B84906632240E222400B893
:104CCC000EE688D9728282A88466242800B90CC8A2
:104CDC0089E95266CAF4BF3908BA19CB79AB92C6C6
:104CEC002666A424A6EAE8AA26A46426C6E6111E13
:104CFC004800BB166B89A21382A264A464A46484CA
:104D0C00468646B6D147A900BC3EF98A2057C685CF
:104D1C00AA05A5058525654565634565258505A514
:104D2C0005C5C2E4C4341B534573102225212C162F
:104D3C00222B26222B25232A2524297640262C2893
:104D4C002D272E176D01BD40F98A2057C685AA055F
:104D5C00A52385256545D58ACA4A0A0B4A0BCA5430
:104D6C00C9C928129391929112923A18111A9294DD
:104D7C001292949D149D149D141D951C8A929C0A4C
:104D8C00923C180A3D18BE44F98A2057AAA36464C1
:104D9C00A56624C58424850565074509A5E7C4A730
:104DAC00448594C50CA992119A919A19999122B2A1
:104DBC0091929016121196129195929115522A7504
:104DCC0040262C282D282D276C01BF202C8B99D305
:104DDC00240929E5B110158D0D95941C1C241C2457
:104DEC001C737626312642327402C0491784E0B512
:104DFC00E4C1E6C1E6C1E6E1E4E1E43188079B8762
:104E0C009A07A207AA87A90791980791A00710A152
:104E1C000790990790A1969A962296A2959B3D3061
:104E2C003DB0949C942494A4932593A59AADA9BCCD
:104E3C00B83B10C14A1784E0F501E4A1E681E68194
:104E4C00E681E4A1E43188079B879A07A207AA8729
:104E5C00A90791980791A00710A10790990790A115
:104E6C00969A962296A2959B3D303DB0949C9424A4
:104E7C0094A4932593A59AADA9BCB83B10C248F74E
:104E8C0083E075E5A1E861EC2184C4C5E491C68397
:104E9C00CD43CD03D103D5C3D48348CC8348D003B1
:104EAC0088D003C8CC03C8504B4D4B114BD1CACD45
:104EBC001E981E584A4E4A124AD2C992C952CDD691
:104ECC00545EDC1D08C344D783E01569A40FA465A8
:104EDC00E871150F360F350F440F540F530F223155
:104EEC000F22410F20420F20330F20432D352D452B
:104EFC002C452B377B607A60293929492849274B67
:104F0C00264B355B5379717720C444D783E0F58405
:104F1C00C449C885E471150F360F350F440F540F73
:104F2C00530F22310F22410F20420F20330F204309
:104F3C002D352D452C452B377B607A602939294935
:104F4C002849274B264B355B5379717720C54C1775
:104F5C0084E035E96144E44182E24182E241D4C318
:104F6C00D0238F079B879A07A207AA87A907919836
:104F7C000791A00710A10790990790A1969A9622E5
:104F8C0096A2959B3D303DB0949C942494A493257B
:104F9C0093A59AADA9BCB83B10C6563E8320F80E1B
:104FAC001E481EBC9D98AB15999C15991C951955BE
:104FBC0033162329341614293425142835252D3578
:104FCC00342C76302C76302B37347B50257A602578
:104FDC002A3816142439161424391B233A2A233A56
:104FEC002A223B39223B574178F060E8E0A000C709
:104FFC0048148C99158BE40E26A4A88C2669486756
:10500C00664788458825A825C823E821E821E8219A
:10501C00E821E821E821C825A825A84388656885EA
:10502C0046C506054B680FE201E261E261E881E4E6
:10503C0061C463E4010801C84A148C20D6E461E61B
:10504C0061E661E681E481E4810F0E4C0E0E880668
:10505C008B468746876685C68284C6A282C6A28294
:10506C00A64467480F460F466748A744A744C7A203
:10507C0082C6A2828683668566854687064B0E7E2F
:10508C0030C94B148C20F601E441E621E621E621DF
:10509C00E441E4A10F0E4C0E0E88068B4687468722
:1050AC006685C68284C6A282C6A282A64467480FC1
:1050BC00460F466748A744A744C7A282C6A2828669
:1050CC0083668566854687064B0E7E30CA49148CEE
:1050DC002056E541E801AC8564C5E4911F1C981C81
:1050EC001C100D168D0E8D0ECD0A8D05098D4505E6
:1050FC008D45054D89CE901E8C1E8CCE904E894EC2
:10510C00898E45058D45050D07CD0ACD0A8D0E0DF1
:10511C00961CFC6000CB45D48B20166584298865D1
:10512C00E43178607270403458343A343A342B3469
:10513C00162434161534161534253A437A307A3041
:10514C003A433A253A253A1615341615341C342BA5
:10515C00342B343A345872F08301CC140B8C6033FA
:10516C002437557E407236B8FFFFB3930302CD1738
:10517C000B8C601305E7D609CA831C909C0DEEFFBF
:10518C00FFECE48000CE17EB8B60B304C98C9488E1
:10519C00C91E909C0DEEFFFFECE48000CF17CB8B6B
:1051AC00605364642868D4431E909C0DEEFFFFECA2
:1051BC00E48000D03D368B20161E1E1C0C92150E62
:1051CC00D24D928D8E8D528D52CD4ECD12CD12CDA3
:1051DC00521CCC511CCC11CD12CD12CD12CD4E8DFA
:1051EC00528D528D8E4DCE0D0E1D1C4C1D1CC401AE
:1051FC00D153DA8B207769E4210EE42164E87170D5
:10520C00107830536A562B682A682A28412928516D
:10521C00A8A44E50864E50A64C50A84A508A4A50CC
:10522C00AA4850AC46508E4650AE445090445092D2
:10523C004250744250D450B650985098CC76E86096
:10524C00540800D245168C20B6E4A1E6A1E6A1E6EE
:10525C00C1E4C1E4511E041F5492D18D4E91120D24
:10526C00CF10931053901F841F841F841F841F849E
:10527C001F841F841F848F109310D30C0F91528D99
:10528C00CE91511E141FC401D345168C20D6E58136
:10529C00E661E661E661E481E4911E041F5492D15B
:1052AC008D4E91120DCF10931053901F841F841F9D
:1052BC00841F841F841F841F841F848F109310D31A
:1052CC000C0F91528DCE91511E141FC401D444F673
:1052DC008B2056E581E841EC0184A4C5E4511D0402
:1052EC001F5492D18D4E91120DCF10931053901FCD
:1052FC00841F841F841F841F841F841F841F848F1A
:10530C00109310D30C0F91528DCE91511E141FC4BB
:10531C0001D540D68B201669840F8465E8B13E0810
:10532C003EA824A31B9D22251A9E212621A6203FA0
:10533C00083F083F083F083F083F083F083F081F49
:10534C00212621A6191E22A51A9D23A33C283E889E
:10535C0003D640D68B201665C429C865E4B13E0837
:10536C003EA824A31B9D22251A9E212621A6203F60
:10537C00083F083F083F083F083F083F083F081F09
:10538C00212621A6191E22A51A9D23A33C283E885E
:10539C0003D71FF191211566272667E6A6D6CD4CBB
:1053AC004ECC564FD74E4CCECC4DAD9B999C981DA8
:1053BC00D850968B1EF681040F62E40E2AC4E6CAFE
:1053CC0046A7288B466B28254808452828650E02D9
:1053DC00850EE2A40EC2A60EC2C40EA2E40E82E694
:1053EC000E8204296624472824492824694A8748C0
:1053FC00A908C9CAC8240ECA660E02E581E4A10038
:10540C00D9471A84A056E521E721E721E741E54178
:10541C00E5511D501D8C5C9A4D0B4E0B4E0B4E0BDB
:10542C004E0B4E0B4E0B4E0B4E0B4E0B4E0B4E0BA8
:10543C004E0B4E0B4E0B4E0B4E0BD28ACE8A520A93
:10544C0057511FD0839C02DA481A84A0F661E401FC
:10545C00E7E1E6E1E6E1E401E5D11D501D8C5C9A43
:10546C004D0B4E0B4E0B4E0B4E0B4E0B4E0B4E0B69
:10547C004E0B4E0B4E0B4E0B4E0B4E0B4E0B4E0B58
:10548C004E0BD28ACE8A520A57511FD0839C02DB14
:10549C0046FA83A0B6E501E9C1EC81D48388C9A39F
:1054AC0039A03A18B9349B169C169C169C169C165F
:1054BC009C169C169C169C169C169C169C169C1650
:1054CC009C169C169C169C16A4159D15A514AEA294
:1054DC003EA0073905DC44DA83A05685E441D88325
:1054EC0008C9E3E080EA60E4D26C5A705A705A70D2
:1054FC005A705A705A705A705A705A705A705A7050
:10550C005A705A705A705A705A705A9056745694FF
:10551C0052B88AFA801EE41400DD491784E0F501C4
:10552C00E4A1E681E681E681E4A1E4111D481D4871
:10553C005816958E910A120E128A92C95609134961
:10554C00D78893C84350C843D8C3D4C3D043CD43A2
:10555C00CD43CD43CD43CD43CD43CD43CDC39C1F94
:10556C009001DE38348BA0150E88EB21E641E64124
:10557C00E641E6410E280FECE6C806A926892689E5
:10558C0026892689268906A9E6AA0ECE0E0AE741A7
:10559C00E641E641E6218A0F2801DF3A5183DFD448
:1055AC002E49E6A6C6A688E686E686E686E686C682
:1055BC00A6C6A646EA46EAC6A6E686E686E66806D5
:1055CC0067066706670667066746466846D690AC68
:1055DC0030391E02E02DF08A6094C4B70790079012
:1055EC0087AD3C9022221A1B1A1B1A1BB53B90222A
:1055FC005A363337333733464364117110526234A1
:10560C0001E12CF08A6054A587174BCB23A83C9062
:10561C0022221A1B1A1B1A1BB53B90225A363337FF
:10562C0033373346436411711052623401E22DD08A
:10563C008A60D4A4692D85E4C4E4412B0FA4888826
:10564C00C686C686C646ED0EA48896CDCCCDCCCDEE
:10565C008CD11059441C84B49A00E32CB08A609409
:10566C0068C40EC464E811571E4811118D0D8D0DC0
:10567C008D8DDA1D48112D9B999B999B19A321B2F5
:10568C00883808693501E42CB08A609464042908D0
:10569C0065E411571E4811118D0D8D0D8D8DDA1D80
:1056AC0048112D9B999B999B19A321B288380869A5
:1056BC003501E530F08A60B4684544834283424545
:1056CC0064E9A12B0FA48888C686C686C646ED0E53
:1056DC00A48896CDCCCDCCCD8CD11059441C84B49F
:1056EC009A00E631178A60968CCA0E440E62A6AAFE
:1056FC0046C6C844C6E626C6E6E6EC860E0E4A88C2
:10570C0066C746C946E708C9EA8C8E460E440E8425
:10571C00CC6C00E724EC8A99B3C80E6286268628E6
:10572C0086CE2426B724A48BA092A8913908234DA9
:10573C004A2B2A16234704E822EE8A207484B75693
:10574C000F5877203435322732F7C181ED2C29657B
:10575C00049D08D1D0815C1100E924EE8A20746587
:10576C004797CACA83D61D080D918C8D083A3C38D0
:10577C00B09D25A58CA013211A3A902B02EA25CEB8
:10578C008A20D46429ED84A4C4E4C1EA0E84A6461C
:10579C00E644E63E38B09D25A58CA013211A3A901C
:1057AC002B02EB24AE8A209464C428C864E491D5FF
:1057BC001D084D8DCC89CC7D70603B4B4A1941271F
:1057CC00422574205704EC0FE98AE012E436546B3E
:1057DC00B6FF6F0E04ED11E98AE0F2C4A656898972
:1057EC009BEDFF9B0301EE13CA82E092E4A86C844C
:1057FC0024C464EDF6FFD18100EF12A98AE0326473
:10580C002458C8C80399EDFF9B0301F0262E8B602A
:10581C0054848927065B4A0CCFD2CE1D041DCC0CB8
:10582C00918C518C1DFAE119C5D80811CDC1981174
:10583C0000F12FB382E0D468240F2465E83199215C
:10584C00B3388833A1A322235B3736373637363744
:10585C0036373637363736373637363773107310A8
:10586C00F220EE8A205484B7560F49781035343321
:10587C0036323631E8876714632344440781540079
:10588C00F322EE8A2074654797CACA83121E440D10
:10589C00CD8C8D8C4D0CFAE119C5D80811D1412055
:1058AC001500F425CE8A20D46429ED84A4C4E4C167
:1058BC00080FA28666C646C62606FD70626C646C2E
:1058CC006668EA20900A00F524AE8A209468840E5B
:1058DC008464E891111E440DCD8C8D8C4D0CFAE135
:1058EC00C4D8C8D8CCD0D441201500F623AE8A2019
:1058FC0074945190C9C8A3233C881A9A191B199BFC
:10590C0018F4C389B191B199A1A983402A00F71564
:10591C00109220F5A489A9E5313DF8801E536962E7
:10592C006A3900F82CCE8A1D748565E5AE0E84D6D6
:10593C000C950C49480C891889D8C8D8C89808996E
:10594C000859088D148D100D1D48DDC90ACB02F9BC
:10595C0034F28220B5E421E621E621E641E441E47B
:10596C0081E7468CACE6A6E6A6E6A6E6A6E6A6E6A3
:10597C00A6E6A6E6A6E6A6C6A8C6C866CC0E22AAC9
:10598C006A4600FA30F2822095E501C697CB03C82F
:10599C0023981B31B29A9B9A9B9A9B9A9B9A9B9A9F
:1059AC009B9A9B9A9B9A9B1AA31A239B313B88A880
:1059BC00AA1901FB31D2822015E501A86D8524C5F9
:1059CC00E441E7468CACE6A6E6A6E6A6E6A6E6A685
:1059DC00E6A6E6A6E6A6E6A6C6A8C6C866CC0E222D
:1059EC00AA6A4600FC2FB28220D56444294865E49B
:1059FC0091CF8D1859CD4DCD4DCD4DCD4DCD4DCDEE
:105A0C004DCD4DCD4DCD4D8D518D91CD981D4454D9
:105A1C00D58C00FD34D18BD994C5A7578BCB831E65
:105A2C00C458D4CDD049CD4951C94DC91145CE48E2
:105A3C00CE4852C84EC8563397071097079094918A
:105A4C009C911C11359E06FE2FB08BD95466ABF77A
:105A5C00866CE220C886D90C19C9E0C8E0C8E0C839
:105A6C00E0C8E0C8E0081909D94C11CDC441D048B0
:105A7C00D9F4DE1E0402FF37928B19D564442948F1
:105A8C0065E4D11EC45CD40DD189CD8951094E0970
:105A9C001285CE88CE8852084F0897B3079087900E
:105AAC000790871095119D111D91B51E07000000E0
:045ABC00B901000824
:045AC0009501000844
:105AC40000BD010500000000000000000102030405
