:020000040800F2
:1000000000800120D501000821020008210200081B
:10001000210200082102000821020008000000005F
:1000200000000000000000000000000021020008A5
:10003000210200080000000021020008210200083F
:10004000000000002102000821020008210200082F
:1000500021020008210200082102000821020008F4
:1000600021020008210200082102000821020008E4
:1000700021020008210200082102000821020008D4
:1000800021020008210200082102000800000000EF
:100090000000000000000000000000002102000835
:1000A00021020008210200082102000821020008A4
:1000B0002102000821020008210200082102000894
:1000C0002102000821020008210200082102000884
:1000D000210200082102000821020008000000009F
:1000E000210200082102000821020008000000008F
:1000F00000000000000000000000000021020008D5
:10010000000000002102000821020008210200086E
:1001100000000000000000000000000000000000DF
:100120002102000821020008210200082102000823
:100130002102000800000000000000000000000094
:100140000000000000000000000000002102000884
:1001500021020008210200082102000821020008F3
:100160002102000821020008000000000000000039
:10017000000000000000000000000000000000007F
:10018000000000000000000000000000000000006F
:040190002102000840
:1001940010B5054C237833B9044B13B10448AFF3BD
:1001A40000800123237010BD000000200000000027
:1001B4006C02000808B5034B1BB103490348AFF3B5
:1001C400008008BD00000000040000206C0200084C
:1001D4000C488546AFF300800B480C490C4A0023B9
:1001E40002E0D458C4500433C4188C42F9D3094AE9
:1001F400094C002301E013600432A242FBD300F057
:100204000FF8FEE70080012000000020000000201D
:100214008C020008000000201C000020FEE7000003
:1002240070B50D4D0D4C641BA4100026A64209D1D7
:100234000B4D0C4C00F018F8641BA4100026A642C9
:1002440005D170BD55F8043B98470136EEE755F8E3
:10025400043B98470136F2E7840200088402000850
:100264008402000888020008F8B500BFF8BC08BC86
:100274009E467047F8B500BFF8BC08BC9E46704760
:04028400B9010008B4
:0402880095010008D4
:04000005080001D519
:00000001FF
